{
  "contractName": "MerkleVerifier",
  "abi": [
    {
      "inputs": [
        {
          "internalType": "bytes32",
          "name": "root",
          "type": "bytes32"
        },
        {
          "internalType": "bytes32[]",
          "name": "proof",
          "type": "bytes32[]"
        },
        {
          "internalType": "address",
          "name": "leaf",
          "type": "address"
        }
      ],
      "name": "verify",
      "outputs": [
        {
          "internalType": "bool",
          "name": "",
          "type": "bool"
        }
      ],
      "stateMutability": "pure",
      "type": "function"
    },
    {
      "inputs": [
        {
          "internalType": "bytes32",
          "name": "root",
          "type": "bytes32"
        },
        {
          "internalType": "bytes32[]",
          "name": "proof",
          "type": "bytes32[]"
        }
      ],
      "name": "verify",
      "outputs": [
        {
          "internalType": "bool",
          "name": "",
          "type": "bool"
        }
      ],
      "stateMutability": "view",
      "type": "function"
    }
  ],
  "bytecode": "0x608060405234801561001057600080fd5b50610643806100206000396000f3fe608060405234801561001057600080fd5b50600436106100365760003560e01c80634cc23d961461003b5780636df4d2411461006b575b600080fd5b6100556004803603810190610050919061034c565b61009b565b60405161006291906103db565b60405180910390f35b610085600480360381019061008091906103f6565b61011b565b60405161009291906103db565b60405180910390f35b6000610111848480806020026020016040519081016040528093929190818152602001838360200280828437600081840152601f19601f8201169050808301925050505050505086846040516020016100f4919061049e565b60405160208183030381529060405261010c906104f6565b61019a565b9050949350505050565b6000610191838380806020026020016040519081016040528093929190818152602001838360200280828437600081840152601f19601f820116905080830192505050505050508533604051602001610174919061049e565b60405160208183030381529060405261018c906104f6565b61019a565b90509392505050565b6000826101a785846101b1565b1490509392505050565b60008082905060005b84518110156101fc576101e7828683815181106101da576101d961055d565b5b6020026020010151610207565b915080806101f4906105c5565b9150506101ba565b508091505092915050565b600081831061021f5761021a8284610232565b61022a565b6102298383610232565b5b905092915050565b600082600052816020526040600020905092915050565b600080fd5b600080fd5b6000819050919050565b61026681610253565b811461027157600080fd5b50565b6000813590506102838161025d565b92915050565b600080fd5b600080fd5b600080fd5b60008083601f8401126102ae576102ad610289565b5b8235905067ffffffffffffffff8111156102cb576102ca61028e565b5b6020830191508360208202830111156102e7576102e6610293565b5b9250929050565b600073ffffffffffffffffffffffffffffffffffffffff82169050919050565b6000610319826102ee565b9050919050565b6103298161030e565b811461033457600080fd5b50565b60008135905061034681610320565b92915050565b6000806000806060858703121561036657610365610249565b5b600061037487828801610274565b945050602085013567ffffffffffffffff8111156103955761039461024e565b5b6103a187828801610298565b935093505060406103b487828801610337565b91505092959194509250565b60008115159050919050565b6103d5816103c0565b82525050565b60006020820190506103f060008301846103cc565b92915050565b60008060006040848603121561040f5761040e610249565b5b600061041d86828701610274565b935050602084013567ffffffffffffffff81111561043e5761043d61024e565b5b61044a86828701610298565b92509250509250925092565b60008160601b9050919050565b600061046e82610456565b9050919050565b600061048082610463565b9050919050565b6104986104938261030e565b610475565b82525050565b60006104aa8284610487565b60148201915081905092915050565b600081519050919050565b6000819050602082019050919050565b60006104e08251610253565b80915050919050565b600082821b905092915050565b6000610501826104b9565b8261050b846104c4565b9050610516816104d4565b92506020821015610556576105517fffffffffffffffffffffffffffffffffffffffffffffffffffffffffffffffff836020036008026104e9565b831692505b5050919050565b7f4e487b7100000000000000000000000000000000000000000000000000000000600052603260045260246000fd5b7f4e487b7100000000000000000000000000000000000000000000000000000000600052601160045260246000fd5b6000819050919050565b60006105d0826105bb565b91507fffffffffffffffffffffffffffffffffffffffffffffffffffffffffffffffff82036106025761060161058c565b5b60018201905091905056fea264697066735822122054093a99d7e627e1a99594dc6d56c620959ab0016a904103b98444cd6d7b32da64736f6c634300080f0033",
  "immutableReferences": {},
  "source": "// SPDX-License-Identifier: MIT\npragma solidity ^0.8.15;\n\nimport \"@openzeppelin/contracts/utils/cryptography/MerkleProof.sol\";\n\n// @title Merkle Verifier\n// @notice Utility to verify merkle proofs\ncontract MerkleVerifier {\n\n    // @notice Verify caller's address against provided root and proof\n    function verify(bytes32 root, bytes32[] calldata proof)\n    external view returns (bool) {\n        return MerkleProof.verify(proof, root, bytes32(abi.encodePacked(msg.sender)));\n    }\n\n    // @notice Verify address against root and proof\n    function verify(bytes32 root, bytes32[] calldata proof, address leaf)\n    external pure returns (bool) {\n        return MerkleProof.verify(proof, root, bytes32(abi.encodePacked(leaf)));\n    }\n}\n",
  "sourcePath": "/Users/tjharrison/he/merkle-express/contracts/MerkleVerifier.sol",
  "compiler": {
    "name": "solc",
    "version": "0.8.15+commit.e14f2714.Emscripten.clang"
  },
  "schemaVersion": "3.4.3",
  "updatedAt": "2022-07-17T15:03:48.362Z",
  "devdoc": {
    "kind": "dev",
    "methods": {},
    "version": 1
  },
  "userdoc": {
    "kind": "user",
    "methods": {},
    "version": 1
  }
}